{
  "address": "0x88dbF661AB56dC5c9aA13762eAae40Bc4765B206",
  "abi": [
    {
      "inputs": [],
      "name": "AlreadyResponded",
      "type": "error"
    },
    {
      "inputs": [],
      "name": "InvalidAnswerCount",
      "type": "error"
    },
    {
      "inputs": [],
      "name": "InvalidPollId",
      "type": "error"
    },
    {
      "inputs": [],
      "name": "PollEnded",
      "type": "error"
    },
    {
      "inputs": [],
      "name": "PollNotFound",
      "type": "error"
    },
    {
      "inputs": [],
      "name": "PollNotStarted",
      "type": "error"
    },
    {
      "inputs": [],
      "name": "Unauthorized",
      "type": "error"
    },
    {
      "anonymous": false,
      "inputs": [
        {
          "indexed": true,
          "internalType": "uint256",
          "name": "pollId",
          "type": "uint256"
        },
        {
          "indexed": true,
          "internalType": "address",
          "name": "creator",
          "type": "address"
        }
      ],
      "name": "PollClosed",
      "type": "event"
    },
    {
      "anonymous": false,
      "inputs": [
        {
          "indexed": true,
          "internalType": "uint256",
          "name": "pollId",
          "type": "uint256"
        },
        {
          "indexed": true,
          "internalType": "address",
          "name": "creator",
          "type": "address"
        },
        {
          "indexed": false,
          "internalType": "string",
          "name": "title",
          "type": "string"
        },
        {
          "indexed": false,
          "internalType": "string",
          "name": "questionsData",
          "type": "string"
        }
      ],
      "name": "PollCreated",
      "type": "event"
    },
    {
      "anonymous": false,
      "inputs": [
        {
          "indexed": true,
          "internalType": "uint256",
          "name": "pollId",
          "type": "uint256"
        },
        {
          "indexed": true,
          "internalType": "address",
          "name": "respondent",
          "type": "address"
        },
        {
          "indexed": false,
          "internalType": "uint256",
          "name": "timestamp",
          "type": "uint256"
        }
      ],
      "name": "ResponseSubmitted",
      "type": "event"
    },
    {
      "inputs": [
        {
          "internalType": "uint256",
          "name": "pollId",
          "type": "uint256"
        }
      ],
      "name": "closePoll",
      "outputs": [],
      "stateMutability": "nonpayable",
      "type": "function"
    },
    {
      "inputs": [
        {
          "internalType": "string",
          "name": "title",
          "type": "string"
        },
        {
          "internalType": "string",
          "name": "description",
          "type": "string"
        },
        {
          "internalType": "uint64",
          "name": "startTime",
          "type": "uint64"
        },
        {
          "internalType": "uint64",
          "name": "endTime",
          "type": "uint64"
        },
        {
          "internalType": "string",
          "name": "questionsData",
          "type": "string"
        },
        {
          "internalType": "uint8",
          "name": "questionCount",
          "type": "uint8"
        },
        {
          "internalType": "bool",
          "name": "isPublic",
          "type": "bool"
        }
      ],
      "name": "createPoll",
      "outputs": [
        {
          "internalType": "uint256",
          "name": "pollId",
          "type": "uint256"
        }
      ],
      "stateMutability": "nonpayable",
      "type": "function"
    },
    {
      "inputs": [
        {
          "internalType": "uint256",
          "name": "pollId",
          "type": "uint256"
        }
      ],
      "name": "getPollInfo",
      "outputs": [
        {
          "components": [
            {
              "internalType": "uint256",
              "name": "id",
              "type": "uint256"
            },
            {
              "internalType": "address",
              "name": "creator",
              "type": "address"
            },
            {
              "internalType": "string",
              "name": "title",
              "type": "string"
            },
            {
              "internalType": "string",
              "name": "description",
              "type": "string"
            },
            {
              "internalType": "uint64",
              "name": "startTime",
              "type": "uint64"
            },
            {
              "internalType": "uint64",
              "name": "endTime",
              "type": "uint64"
            },
            {
              "internalType": "uint8",
              "name": "questionCount",
              "type": "uint8"
            },
            {
              "internalType": "bool",
              "name": "isPublic",
              "type": "bool"
            },
            {
              "internalType": "bool",
              "name": "isActive",
              "type": "bool"
            },
            {
              "internalType": "uint256",
              "name": "responseCount",
              "type": "uint256"
            }
          ],
          "internalType": "struct PrivaPoll.Poll",
          "name": "",
          "type": "tuple"
        }
      ],
      "stateMutability": "view",
      "type": "function"
    },
    {
      "inputs": [
        {
          "internalType": "uint256",
          "name": "pollId",
          "type": "uint256"
        }
      ],
      "name": "getPollResponses",
      "outputs": [
        {
          "internalType": "euint32[]",
          "name": "",
          "type": "bytes32[]"
        }
      ],
      "stateMutability": "view",
      "type": "function"
    },
    {
      "inputs": [
        {
          "internalType": "address",
          "name": "creator",
          "type": "address"
        }
      ],
      "name": "getPollsByCreator",
      "outputs": [
        {
          "internalType": "uint256[]",
          "name": "",
          "type": "uint256[]"
        }
      ],
      "stateMutability": "view",
      "type": "function"
    },
    {
      "inputs": [
        {
          "internalType": "address",
          "name": "respondent",
          "type": "address"
        }
      ],
      "name": "getResponsesBySender",
      "outputs": [
        {
          "internalType": "uint256[]",
          "name": "",
          "type": "uint256[]"
        }
      ],
      "stateMutability": "view",
      "type": "function"
    },
    {
      "inputs": [],
      "name": "getTotalPolls",
      "outputs": [
        {
          "internalType": "uint256",
          "name": "",
          "type": "uint256"
        }
      ],
      "stateMutability": "view",
      "type": "function"
    },
    {
      "inputs": [
        {
          "internalType": "uint256",
          "name": "pollId",
          "type": "uint256"
        },
        {
          "internalType": "address",
          "name": "respondent",
          "type": "address"
        }
      ],
      "name": "getUserResponses",
      "outputs": [
        {
          "internalType": "euint32[]",
          "name": "",
          "type": "bytes32[]"
        }
      ],
      "stateMutability": "view",
      "type": "function"
    },
    {
      "inputs": [
        {
          "internalType": "uint256",
          "name": "",
          "type": "uint256"
        },
        {
          "internalType": "address",
          "name": "",
          "type": "address"
        }
      ],
      "name": "hasResponded",
      "outputs": [
        {
          "internalType": "bool",
          "name": "",
          "type": "bool"
        }
      ],
      "stateMutability": "view",
      "type": "function"
    },
    {
      "inputs": [
        {
          "internalType": "uint256",
          "name": "",
          "type": "uint256"
        }
      ],
      "name": "polls",
      "outputs": [
        {
          "internalType": "uint256",
          "name": "id",
          "type": "uint256"
        },
        {
          "internalType": "address",
          "name": "creator",
          "type": "address"
        },
        {
          "internalType": "string",
          "name": "title",
          "type": "string"
        },
        {
          "internalType": "string",
          "name": "description",
          "type": "string"
        },
        {
          "internalType": "uint64",
          "name": "startTime",
          "type": "uint64"
        },
        {
          "internalType": "uint64",
          "name": "endTime",
          "type": "uint64"
        },
        {
          "internalType": "uint8",
          "name": "questionCount",
          "type": "uint8"
        },
        {
          "internalType": "bool",
          "name": "isPublic",
          "type": "bool"
        },
        {
          "internalType": "bool",
          "name": "isActive",
          "type": "bool"
        },
        {
          "internalType": "uint256",
          "name": "responseCount",
          "type": "uint256"
        }
      ],
      "stateMutability": "view",
      "type": "function"
    },
    {
      "inputs": [],
      "name": "protocolId",
      "outputs": [
        {
          "internalType": "uint256",
          "name": "",
          "type": "uint256"
        }
      ],
      "stateMutability": "pure",
      "type": "function"
    },
    {
      "inputs": [
        {
          "internalType": "uint256",
          "name": "pollId",
          "type": "uint256"
        },
        {
          "internalType": "externalEuint32[]",
          "name": "encryptedAnswers",
          "type": "bytes32[]"
        },
        {
          "internalType": "bytes",
          "name": "inputProof",
          "type": "bytes"
        }
      ],
      "name": "submitResponse",
      "outputs": [],
      "stateMutability": "nonpayable",
      "type": "function"
    }
  ],
  "transactionHash": "0xffa067eba5a27acee980203bc0d607142b53f47dd56463adebf5822802cbb203",
  "args": [],
  "numDeployments": 1,
  "solcInputHash": "576c8de1f5bff604a32e5303003fc871",
  "bytecode": "0x608060405234801561000f575f5ffd5b5061018a6100ae604080516080810182525f808252602082018190529181018290526060810191909152506040805160808101825273687820221192c5b662b25367f70076a37bc79b6c815273848b0066793bcc60346da1f49049357399b8d595602082015273a02cda4ca3a71d7c46997716f4283aa851c2881291810191909152731364cbbf2cdf5032c47d8226a6f6fbd2afcdacac606082015290565b80517f9e7b61f58c47dc699ac88507c4f5bb9f121c03808c5676a8078fe583e464970080546001600160a01b03199081166001600160a01b039384161790915560208301517f9e7b61f58c47dc699ac88507c4f5bb9f121c03808c5676a8078fe583e46497018054831691841691909117905560408301517f9e7b61f58c47dc699ac88507c4f5bb9f121c03808c5676a8078fe583e46497028054831691841691909117905560608301517f9e7b61f58c47dc699ac88507c4f5bb9f121c03808c5676a8078fe583e46497038054909216921691909117905550565b6116e0806101975f395ff3fe608060405234801561000f575f5ffd5b50600436106100cf575f3560e01c8063a4e6b86e1161007d578063da1f12ab11610058578063da1f12ab146101bb578063f9dbed52146101c3578063fb790a3214610200575f5ffd5b8063a4e6b86e1461016c578063ac2f00741461017f578063d0e945db146101a8575f5ffd5b806345bcfd56116100ad57806345bcfd5614610124578063606af7a5146101445780639534e63714610157575f5ffd5b806329b8f44a146100d35780632c72ea18146100fc5780633ef87d541461011d575b5f5ffd5b6100e66100e136600461102b565b610213565b6040516100f39190611070565b60405180910390f35b61010f61010a3660046111b8565b61044f565b6040519081526020016100f3565b5f5461010f565b6101376101323660046112b4565b6106e4565b6040516100f391906112cd565b61013761015236600461102b565b61074d565b61016a61016536600461102b565b61081b565b005b61016a61017a36600461130f565b6108b4565b61019261018d36600461102b565b610b2e565b6040516100f39a999897969594939291906113ba565b6101376101b636600461143b565b610cb4565b61271161010f565b6101f06101d136600461143b565b600360209081525f928352604080842090915290825290205460ff1681565b60405190151581526020016100f3565b61013761020e3660046112b4565b610de6565b60408051610140810182525f80825260208083018290526060838501819052808401526080830182905260a0830182905260c0830182905260e0830182905261010083018290526101208301829052848252600190529190912054821461028d57604051633e75bf7b60e21b815260040160405180910390fd5b5f8281526001602081815260409283902083516101408101855281548152928101546001600160a01b03169183019190915260028101805492939192918401916102d690611465565b80601f016020809104026020016040519081016040528092919081815260200182805461030290611465565b801561034d5780601f106103245761010080835404028352916020019161034d565b820191905f5260205f20905b81548152906001019060200180831161033057829003601f168201915b5050505050815260200160038201805461036690611465565b80601f016020809104026020016040519081016040528092919081815260200182805461039290611465565b80156103dd5780601f106103b4576101008083540402835291602001916103dd565b820191905f5260205f20905b8154815290600101906020018083116103c057829003601f168201915b5050509183525050600482015467ffffffffffffffff808216602084015268010000000000000000820416604083015260ff600160801b820481166060840152600160881b8204811615156080840152600160901b90910416151560a082015260059091015460c09091015292915050565b5f8054818061045d836114b1565b919050559050604051806101400160405280828152602001336001600160a01b031681526020018c8c8080601f0160208091040260200160405190810160405280939291908181526020018383808284375f92019190915250505090825250604080516020601f8d018190048102820181019092528b815291810191908c908c90819084018382808284375f92018290525093855250505067ffffffffffffffff8a8116602080850191909152908a1660408085019190915260ff881660608501528615156080850152600160a0850181905260c090940183905285835283825291829020845181559084015192810180547fffffffffffffffffffffffff0000000000000000000000000000000000000000166001600160a01b039094169390931790925582015160028201906105959082611529565b50606082015160038201906105aa9082611529565b5060808201516004808301805460a086015160c087015160e08801516101008901511515600160901b0260ff60901b19911515600160881b0271ff00000000000000000000000000000000001960ff909416600160801b029390931671ffff000000000000000000000000000000001967ffffffffffffffff95861668010000000000000000026fffffffffffffffffffffffffffffffff19909716959099169490941794909417969096169190911717939093169290921790915561012090920151600590910155335f81815260209283526040808220805460018101825590835293909120909201839055905182907fe903c9ab2ab36f6e73d3376b886f32ad2fd9f80744bb7d74443a47cde82f4a54906106ce908f908f908b908b9061160c565b60405180910390a39a9950505050505050505050565b6001600160a01b0381165f9081526005602090815260409182902080548351818402810184019094528084526060939283018282801561074157602002820191905f5260205f20905b81548152602001906001019080831161072d575b50505050509050919050565b5f818152600160205260409020805460609190831461077f57604051633e75bf7b60e21b815260040160405180910390fd5b60018101546001600160a01b031633146107ab576040516282b42960e81b815260040160405180910390fd5b600481015460058201545f916107cc91600160801b90910460ff169061163d565b90505f8167ffffffffffffffff8111156107e8576107e86114c9565b604051908082528060200260200182016040528015610811578160200160208202803683370190505b5095945050505050565b5f8181526001602052604090208054821461084957604051633e75bf7b60e21b815260040160405180910390fd5b60018101546001600160a01b03163314610875576040516282b42960e81b815260040160405180910390fd5b60048101805460ff60901b19169055604051339083907f5f9f4b9200056c29dcdf9532acb77e0d5368e9f85580b6e1aeff24c36bddea2b905f90a35050565b5f858152600160205260409020805486146108e257604051633e75bf7b60e21b815260040160405180910390fd5b600481015467ffffffffffffffff164210156109115760405163a1ff723d60e01b815260040160405180910390fd5b600481015468010000000000000000900467ffffffffffffffff1642118061094557506004810154600160901b900460ff16155b156109635760405163969f98a360e01b815260040160405180910390fd5b5f86815260036020908152604080832033845290915290205460ff161561099d5760405163251aba6960e11b815260040160405180910390fd5b6004810154600160801b900460ff1684146109cb5760405163377f413b60e01b815260040160405180910390fd5b5f5b84811015610a8f575f610a2d8787848181106109eb576109eb611654565b9050602002013586868080601f0160208091040260200160405190810160405280939291908181526020018383808284375f92019190915250610e4d92505050565b5f8981526002602090815260408083203384528252822080546001810182559083529120018190559050610a6081610e61565b506001830154610a7a9082906001600160a01b0316610e70565b50610a858133610e70565b50506001016109cd565b505f8681526003602090815260408083203384529091528120805460ff1916600117905560058201805491610ac3836114b1565b9091555050335f818152600560209081526040808320805460018101825590845291909220018890555187907f984a1db7bded5074cd8163fbd519f73e2420f4ee068a90e6f2c1baa6c7bc76e190610b1e9042815260200190565b60405180910390a3505050505050565b600160208190525f91825260409091208054918101546002820180546001600160a01b039092169291610b6090611465565b80601f0160208091040260200160405190810160405280929190818152602001828054610b8c90611465565b8015610bd75780601f10610bae57610100808354040283529160200191610bd7565b820191905f5260205f20905b815481529060010190602001808311610bba57829003601f168201915b505050505090806003018054610bec90611465565b80601f0160208091040260200160405190810160405280929190818152602001828054610c1890611465565b8015610c635780601f10610c3a57610100808354040283529160200191610c63565b820191905f5260205f20905b815481529060010190602001808311610c4657829003601f168201915b5050506004840154600590940154929367ffffffffffffffff80821694680100000000000000008304909116935060ff600160801b830481169350600160881b8304811692600160901b900416908a565b5f828152600160205260409020546060908314610ce457604051633e75bf7b60e21b815260040160405180910390fd5b5f8381526003602090815260408083206001600160a01b038616845290915290205460ff16610d2657604051633e75bf7b60e21b815260040160405180910390fd5b5f83815260016020819052604090912001546001600160a01b03163314801590610d595750336001600160a01b03831614155b15610d76576040516282b42960e81b815260040160405180910390fd5b5f8381526002602090815260408083206001600160a01b038616845282529182902080548351818402810184019094528084529091830182828015610dd857602002820191905f5260205f20905b815481526020019060010190808311610dc4575b505050505090505b92915050565b6001600160a01b0381165f9081526004602090815260409182902080548351818402810184019094528084526060939283018282801561074157602002820191905f5260205f209081548152602001906001019080831161072d5750505050509050919050565b5f610e5a83836004610e82565b9392505050565b5f610e6c8230610fa2565b5090565b5f610e7b8383610fa2565b5090919050565b7f9e7b61f58c47dc699ac88507c4f5bb9f121c03808c5676a8078fe583e46497015460405163196d0b9b60e01b81525f917f9e7b61f58c47dc699ac88507c4f5bb9f121c03808c5676a8078fe583e4649700916001600160a01b039091169063196d0b9b90610efb908890339089908990600401611668565b6020604051808303815f875af1158015610f17573d5f5f3e3d5ffd5b505050506040513d601f19601f82011682018060405250810190610f3b91906116bc565b8154604051630f8e573b60e21b8152600481018390523360248201529193506001600160a01b031690633e395cec906044015f604051808303815f87803b158015610f84575f5ffd5b505af1158015610f96573d5f5f3e3d5ffd5b50505050509392505050565b5f7f9e7b61f58c47dc699ac88507c4f5bb9f121c03808c5676a8078fe583e46497008054604051635ca4b5b160e11b8152600481018690526001600160a01b03858116602483015292935091169063b9496b62906044015f604051808303815f87803b158015611010575f5ffd5b505af1158015611022573d5f5f3e3d5ffd5b50505050505050565b5f6020828403121561103b575f5ffd5b5035919050565b5f81518084528060208401602086015e5f602082860101526020601f19601f83011685010191505092915050565b60208152815160208201525f602083015161109660408401826001600160a01b03169052565b50604083015161014060608401526110b2610160840182611042565b90506060840151601f198483030160808501526110cf8282611042565b91505060808401516110ed60a085018267ffffffffffffffff169052565b5060a084015167ffffffffffffffff811660c08501525060c084015160ff811660e08501525060e084015180151561010085015250610100840151801515610120850152506101208401516101408401528091505092915050565b5f5f83601f840112611158575f5ffd5b50813567ffffffffffffffff81111561116f575f5ffd5b602083019150836020828501011115611186575f5ffd5b9250929050565b803567ffffffffffffffff811681146111a4575f5ffd5b919050565b803580151581146111a4575f5ffd5b5f5f5f5f5f5f5f5f5f5f60e08b8d0312156111d1575f5ffd5b8a3567ffffffffffffffff8111156111e7575f5ffd5b6111f38d828e01611148565b909b5099505060208b013567ffffffffffffffff811115611212575f5ffd5b61121e8d828e01611148565b9099509750611231905060408c0161118d565b955061123f60608c0161118d565b945060808b013567ffffffffffffffff81111561125a575f5ffd5b6112668d828e01611148565b90955093505060a08b013560ff8116811461127f575f5ffd5b915061128d60c08c016111a9565b90509295989b9194979a5092959850565b80356001600160a01b03811681146111a4575f5ffd5b5f602082840312156112c4575f5ffd5b610e5a8261129e565b602080825282518282018190525f918401906040840190835b818110156113045783518352602093840193909201916001016112e6565b509095945050505050565b5f5f5f5f5f60608688031215611323575f5ffd5b85359450602086013567ffffffffffffffff811115611340575f5ffd5b8601601f81018813611350575f5ffd5b803567ffffffffffffffff811115611366575f5ffd5b8860208260051b840101111561137a575f5ffd5b60209190910194509250604086013567ffffffffffffffff81111561139d575f5ffd5b6113a988828901611148565b969995985093965092949392505050565b8a81526001600160a01b038a16602082015261014060408201525f6113e361014083018b611042565b82810360608401526113f5818b611042565b67ffffffffffffffff998a1660808501529790981660a08301525060ff9490941660c085015291151560e084015215156101008301526101209091015295945050505050565b5f5f6040838503121561144c575f5ffd5b8235915061145c6020840161129e565b90509250929050565b600181811c9082168061147957607f821691505b60208210810361149757634e487b7160e01b5f52602260045260245ffd5b50919050565b634e487b7160e01b5f52601160045260245ffd5b5f600182016114c2576114c261149d565b5060010190565b634e487b7160e01b5f52604160045260245ffd5b601f82111561152457805f5260205f20601f840160051c810160208510156115025750805b601f840160051c820191505b81811015611521575f815560010161150e565b50505b505050565b815167ffffffffffffffff811115611543576115436114c9565b611557816115518454611465565b846114dd565b6020601f821160018114611589575f83156115725750848201515b5f19600385901b1c1916600184901b178455611521565b5f84815260208120601f198516915b828110156115b85787850151825560209485019460019092019101611598565b50848210156115d557868401515f19600387901b60f8161c191681555b50505050600190811b01905550565b81835281816020850137505f828201602090810191909152601f909101601f19169091010190565b604081525f61161f6040830186886115e4565b82810360208401526116328185876115e4565b979650505050505050565b8082028115828204841417610de057610de061149d565b634e487b7160e01b5f52603260045260245ffd5b8481526001600160a01b0384166020820152608060408201525f61168f6080830185611042565b9050605483106116ad57634e487b7160e01b5f52602160045260245ffd5b82606083015295945050505050565b5f602082840312156116cc575f5ffd5b505191905056fea164736f6c634300081b000a",
  "devdoc": {
    "details": "Supports single choice (euint8) and multiple choice (euint16 bitmask) questions",
    "kind": "dev",
    "methods": {
      "closePoll(uint256)": {
        "params": {
          "pollId": "The poll ID"
        }
      },
      "createPoll(string,string,uint64,uint64,string,uint8,bool)": {
        "params": {
          "description": "Poll description",
          "endTime": "Poll end timestamp",
          "isPublic": "Whether the poll is public",
          "questionCount": "Number of questions",
          "questionsData": "JSON string containing question details",
          "startTime": "Poll start timestamp",
          "title": "Poll title"
        },
        "returns": {
          "pollId": "The ID of the created poll"
        }
      },
      "getPollInfo(uint256)": {
        "params": {
          "pollId": "The poll ID"
        },
        "returns": {
          "_0": "The poll struct"
        }
      },
      "getPollResponses(uint256)": {
        "details": "Returns flattened array: [user1_q1, user1_q2, ..., user2_q1, user2_q2, ...]",
        "params": {
          "pollId": "The poll ID"
        },
        "returns": {
          "_0": "Array of all encrypted answers from all respondents"
        }
      },
      "getPollsByCreator(address)": {
        "params": {
          "creator": "The creator address"
        },
        "returns": {
          "_0": "Array of poll IDs"
        }
      },
      "getResponsesBySender(address)": {
        "params": {
          "respondent": "The respondent address"
        },
        "returns": {
          "_0": "Array of poll IDs"
        }
      },
      "getTotalPolls()": {
        "returns": {
          "_0": "Total poll count"
        }
      },
      "getUserResponses(uint256,address)": {
        "params": {
          "pollId": "The poll ID",
          "respondent": "The respondent address"
        },
        "returns": {
          "_0": "Array of encrypted answers"
        }
      },
      "submitResponse(uint256,bytes32[],bytes)": {
        "details": "All answers are converted to euint32 for storage simplicity",
        "params": {
          "encryptedAnswers": "Array of encrypted answer handles",
          "inputProof": "The input proof for all encrypted answers",
          "pollId": "The poll ID"
        }
      }
    },
    "title": "PrivaPoll - Privacy-Preserving Polling Platform",
    "version": 1
  },
  "userdoc": {
    "kind": "user",
    "methods": {
      "closePoll(uint256)": {
        "notice": "Closes a poll early (only creator)"
      },
      "createPoll(string,string,uint64,uint64,string,uint8,bool)": {
        "notice": "Creates a new poll"
      },
      "getPollInfo(uint256)": {
        "notice": "Gets poll information"
      },
      "getPollResponses(uint256)": {
        "notice": "Gets encrypted responses for a specific poll (only creator)"
      },
      "getPollsByCreator(address)": {
        "notice": "Gets all poll IDs created by an address"
      },
      "getResponsesBySender(address)": {
        "notice": "Gets all poll IDs a user has responded to"
      },
      "getTotalPolls()": {
        "notice": "Gets the total number of polls"
      },
      "getUserResponses(uint256,address)": {
        "notice": "Gets a user's encrypted responses for a specific poll"
      },
      "submitResponse(uint256,bytes32[],bytes)": {
        "notice": "Submits encrypted responses to a poll"
      }
    },
    "notice": "A decentralized polling platform using FHEVM for encrypted responses",
    "version": 1
  },
  "storageLayout": {
    "storage": [
      {
        "astId": 39182,
        "contract": "contracts/PrivaPoll.sol:PrivaPoll",
        "label": "_pollIdCounter",
        "offset": 0,
        "slot": "0",
        "type": "t_uint256"
      },
      {
        "astId": 39187,
        "contract": "contracts/PrivaPoll.sol:PrivaPoll",
        "label": "polls",
        "offset": 0,
        "slot": "1",
        "type": "t_mapping(t_uint256,t_struct(Poll)39180_storage)"
      },
      {
        "astId": 39195,
        "contract": "contracts/PrivaPoll.sol:PrivaPoll",
        "label": "responses",
        "offset": 0,
        "slot": "2",
        "type": "t_mapping(t_uint256,t_mapping(t_address,t_array(t_userDefinedValueType(euint32)39680)dyn_storage))"
      },
      {
        "astId": 39201,
        "contract": "contracts/PrivaPoll.sol:PrivaPoll",
        "label": "hasResponded",
        "offset": 0,
        "slot": "3",
        "type": "t_mapping(t_uint256,t_mapping(t_address,t_bool))"
      },
      {
        "astId": 39206,
        "contract": "contracts/PrivaPoll.sol:PrivaPoll",
        "label": "creatorPolls",
        "offset": 0,
        "slot": "4",
        "type": "t_mapping(t_address,t_array(t_uint256)dyn_storage)"
      },
      {
        "astId": 39211,
        "contract": "contracts/PrivaPoll.sol:PrivaPoll",
        "label": "respondentPolls",
        "offset": 0,
        "slot": "5",
        "type": "t_mapping(t_address,t_array(t_uint256)dyn_storage)"
      }
    ],
    "types": {
      "t_address": {
        "encoding": "inplace",
        "label": "address",
        "numberOfBytes": "20"
      },
      "t_array(t_uint256)dyn_storage": {
        "base": "t_uint256",
        "encoding": "dynamic_array",
        "label": "uint256[]",
        "numberOfBytes": "32"
      },
      "t_array(t_userDefinedValueType(euint32)39680)dyn_storage": {
        "base": "t_userDefinedValueType(euint32)39680",
        "encoding": "dynamic_array",
        "label": "euint32[]",
        "numberOfBytes": "32"
      },
      "t_bool": {
        "encoding": "inplace",
        "label": "bool",
        "numberOfBytes": "1"
      },
      "t_mapping(t_address,t_array(t_uint256)dyn_storage)": {
        "encoding": "mapping",
        "key": "t_address",
        "label": "mapping(address => uint256[])",
        "numberOfBytes": "32",
        "value": "t_array(t_uint256)dyn_storage"
      },
      "t_mapping(t_address,t_array(t_userDefinedValueType(euint32)39680)dyn_storage)": {
        "encoding": "mapping",
        "key": "t_address",
        "label": "mapping(address => euint32[])",
        "numberOfBytes": "32",
        "value": "t_array(t_userDefinedValueType(euint32)39680)dyn_storage"
      },
      "t_mapping(t_address,t_bool)": {
        "encoding": "mapping",
        "key": "t_address",
        "label": "mapping(address => bool)",
        "numberOfBytes": "32",
        "value": "t_bool"
      },
      "t_mapping(t_uint256,t_mapping(t_address,t_array(t_userDefinedValueType(euint32)39680)dyn_storage))": {
        "encoding": "mapping",
        "key": "t_uint256",
        "label": "mapping(uint256 => mapping(address => euint32[]))",
        "numberOfBytes": "32",
        "value": "t_mapping(t_address,t_array(t_userDefinedValueType(euint32)39680)dyn_storage)"
      },
      "t_mapping(t_uint256,t_mapping(t_address,t_bool))": {
        "encoding": "mapping",
        "key": "t_uint256",
        "label": "mapping(uint256 => mapping(address => bool))",
        "numberOfBytes": "32",
        "value": "t_mapping(t_address,t_bool)"
      },
      "t_mapping(t_uint256,t_struct(Poll)39180_storage)": {
        "encoding": "mapping",
        "key": "t_uint256",
        "label": "mapping(uint256 => struct PrivaPoll.Poll)",
        "numberOfBytes": "32",
        "value": "t_struct(Poll)39180_storage"
      },
      "t_string_storage": {
        "encoding": "bytes",
        "label": "string",
        "numberOfBytes": "32"
      },
      "t_struct(Poll)39180_storage": {
        "encoding": "inplace",
        "label": "struct PrivaPoll.Poll",
        "members": [
          {
            "astId": 39161,
            "contract": "contracts/PrivaPoll.sol:PrivaPoll",
            "label": "id",
            "offset": 0,
            "slot": "0",
            "type": "t_uint256"
          },
          {
            "astId": 39163,
            "contract": "contracts/PrivaPoll.sol:PrivaPoll",
            "label": "creator",
            "offset": 0,
            "slot": "1",
            "type": "t_address"
          },
          {
            "astId": 39165,
            "contract": "contracts/PrivaPoll.sol:PrivaPoll",
            "label": "title",
            "offset": 0,
            "slot": "2",
            "type": "t_string_storage"
          },
          {
            "astId": 39167,
            "contract": "contracts/PrivaPoll.sol:PrivaPoll",
            "label": "description",
            "offset": 0,
            "slot": "3",
            "type": "t_string_storage"
          },
          {
            "astId": 39169,
            "contract": "contracts/PrivaPoll.sol:PrivaPoll",
            "label": "startTime",
            "offset": 0,
            "slot": "4",
            "type": "t_uint64"
          },
          {
            "astId": 39171,
            "contract": "contracts/PrivaPoll.sol:PrivaPoll",
            "label": "endTime",
            "offset": 8,
            "slot": "4",
            "type": "t_uint64"
          },
          {
            "astId": 39173,
            "contract": "contracts/PrivaPoll.sol:PrivaPoll",
            "label": "questionCount",
            "offset": 16,
            "slot": "4",
            "type": "t_uint8"
          },
          {
            "astId": 39175,
            "contract": "contracts/PrivaPoll.sol:PrivaPoll",
            "label": "isPublic",
            "offset": 17,
            "slot": "4",
            "type": "t_bool"
          },
          {
            "astId": 39177,
            "contract": "contracts/PrivaPoll.sol:PrivaPoll",
            "label": "isActive",
            "offset": 18,
            "slot": "4",
            "type": "t_bool"
          },
          {
            "astId": 39179,
            "contract": "contracts/PrivaPoll.sol:PrivaPoll",
            "label": "responseCount",
            "offset": 0,
            "slot": "5",
            "type": "t_uint256"
          }
        ],
        "numberOfBytes": "192"
      },
      "t_uint256": {
        "encoding": "inplace",
        "label": "uint256",
        "numberOfBytes": "32"
      },
      "t_uint64": {
        "encoding": "inplace",
        "label": "uint64",
        "numberOfBytes": "8"
      },
      "t_uint8": {
        "encoding": "inplace",
        "label": "uint8",
        "numberOfBytes": "1"
      },
      "t_userDefinedValueType(euint32)39680": {
        "encoding": "inplace",
        "label": "euint32",
        "numberOfBytes": "32"
      }
    }
  }
}